{
  "contractName": "PurchaseJewellery",
  "abi": [
    {
      "constant": true,
      "inputs": [],
      "name": "owner",
      "outputs": [
        {
          "name": "",
          "type": "address"
        }
      ],
      "payable": false,
      "stateMutability": "view",
      "type": "function"
    },
    {
      "constant": true,
      "inputs": [
        {
          "name": "",
          "type": "uint256"
        }
      ],
      "name": "buyers",
      "outputs": [
        {
          "name": "",
          "type": "address"
        }
      ],
      "payable": false,
      "stateMutability": "view",
      "type": "function"
    },
    {
      "inputs": [],
      "payable": false,
      "stateMutability": "nonpayable",
      "type": "constructor"
    },
    {
      "constant": false,
      "inputs": [
        {
          "name": "itemId",
          "type": "uint256"
        }
      ],
      "name": "buyItem",
      "outputs": [
        {
          "name": "",
          "type": "uint256"
        }
      ],
      "payable": true,
      "stateMutability": "payable",
      "type": "function"
    },
    {
      "constant": true,
      "inputs": [],
      "name": "getAllBuyers",
      "outputs": [
        {
          "name": "",
          "type": "address[12]"
        }
      ],
      "payable": false,
      "stateMutability": "view",
      "type": "function"
    }
  ],
  "bytecode": "0x608060405234801561001057600080fd5b50336000806101000a81548173ffffffffffffffffffffffffffffffffffffffff021916908373ffffffffffffffffffffffffffffffffffffffff160217905550610351806100606000396000f300608060405260043610610062576000357c0100000000000000000000000000000000000000000000000000000000900463ffffffff16806386cba22b146100675780638da5cb5b146100ba578063e7fb74c714610111578063f2aa821814610145575b600080fd5b34801561007357600080fd5b5061007c6101b2565b6040518082600c60200280838360005b838110156100a757808201518184015260208101905061008c565b5050505090500191505060405180910390f35b3480156100c657600080fd5b506100cf610233565b604051808273ffffffffffffffffffffffffffffffffffffffff1673ffffffffffffffffffffffffffffffffffffffff16815260200191505060405180910390f35b61012f60048036038101908080359060200190929190505050610258565b6040518082815260200191505060405180910390f35b34801561015157600080fd5b50610170600480360381019080803590602001909291905050506102cc565b604051808273ffffffffffffffffffffffffffffffffffffffff1673ffffffffffffffffffffffffffffffffffffffff16815260200191505060405180910390f35b6101ba610301565b6001600c806020026040519081016040528092919082600c8015610229576020028201915b8160009054906101000a900473ffffffffffffffffffffffffffffffffffffffff1673ffffffffffffffffffffffffffffffffffffffff16815260200190600101908083116101df575b5050505050905090565b6000809054906101000a900473ffffffffffffffffffffffffffffffffffffffff1681565b600080821015801561026a5750600c82105b151561027557600080fd5b33600183600c8110151561028557fe5b0160006101000a81548173ffffffffffffffffffffffffffffffffffffffff021916908373ffffffffffffffffffffffffffffffffffffffff160217905550819050919050565b600181600c811015156102db57fe5b016000915054906101000a900473ffffffffffffffffffffffffffffffffffffffff1681565b61018060405190810160405280600c906020820280388339808201915050905050905600a165627a7a723058201647548a10fa674155a02f7e22228621f4209a66e11b376e9d847b9b192f67450029",
  "source": "pragma solidity ^0.4.23;\r\n\r\ncontract PurchaseJewellery {\r\n    address public owner;\r\n    address[12] public buyers;\r\n\r\n    modifier restricted() {\r\n        if (msg.sender == owner) _;\r\n    }\r\n\r\n    constructor() public {\r\n        owner = msg.sender;\r\n    }\r\n\r\n    function buyItem(uint itemId) public payable returns(uint) {\r\n        require(itemId >= 0 && itemId < 12);     //Only we have 12 items for sell\r\n        buyers[itemId] = msg.sender;\r\n        //this.balance += 0.5 ether;\r\n        return itemId;\r\n    }\r\n\r\n    function getAllBuyers() public view returns (address[12]) {\r\n        return buyers;\r\n    }\r\n}",
  "sourcePath": "D:\\GitHub\\eth-dapp-jewelleryShop\\contracts\\PurchaseJewellery.sol",
  "compiler": {
    "name": "solc",
    "version": "0.4.23+commit.124ca40d.Emscripten.clang"
  },
  "schemaVersion": "2.0.0",
  "updatedAt": "2018-06-01T22:39:22.914Z"
}